:020000040800F2
:1000000000000220E1050008DD050008D54B0008CE
:10001000DD050008DD050008DD0500080000000022
:10002000000000000000000000000000DD050008E6
:10003000DD05000800000000DD050008594B000840
:10004000DD050008DD050008DD050008DD05000808
:10005000DD050008DD050008DD050008DD050008F8
:10006000DD050008DD050008DD0500086147000822
:100070006D470008A12F0008794700088547000850
:10008000C101010839390008DD050008DD05000857
:10009000DD050008DD050008DD050008DD050008B8
:1000A000DD050008DD050008DD050008DD050008A8
:1000B000D9F50008E5F50008F1F500086D390008EC
:1000C000DD05000879390008DD05000849EE000863
:1000D00055EE0008F5FF0008210001085500010851
:1000E000DD050008DD05000800000000DD05000852
:1000F000DD050008DD050008DD050008DD05000858
:10010000DD050008DD050008FDF5000861EE0008CA
:1001100089000108BD000108DD050008DD050008B3
:10012000DD050008DD05000885EE0008B9EE0008D1
:10013000F5010108DD050008DD050008DD05000802
:1001400000000000000000000000000000000000AF
:10015000DD050008DD050008DD050008F1000108E7
:1001600085390008DD050008694B00088D4B000843
:10017000DD050008B14B0008DD050008DD050008BD
:10018000DD050008DD050008250101085901010809
:100190006DEE000879EE0008DD050008DD050008B9
:1001A000DD050008DD050008DD050008DD050008A7
:1001B00081440008DD050008DD050008DD050008B4
:1001C000DD050008DD050008DD050008DD05000887
:1001D000DD050008DD050008DD050008DD05000877
:1001E000DD050008DD050008DD050008DD05000867
:1001F000DD050008DD050008DD050008DD05000857
:10020000DD050008DD050008DD050008DD05000846
:10021000DD050008DD050008DD050008DD05000836
:10022000DD050008DD050008DD0500080000000010
:10023000DD050008DD05000800000000DD05000800
:10024000DD050008DD050008DD050008DD05000806
:10025000DD050008DD050008DD050008DD050008F6
:10026000DD050008DD050008DD050008DD050008E6
:10027000DD050008DD0500088D0101080000000013
:10028000DD050008DD050008DD05000800000000B0
:0802900000000000DD0500087C
:1002980010B5054C237833B9044B13B10448AFF3B8
:1002A80000800123237010BDE0030024000000003B
:1002B800B838010808B5034B1BB103490348AFF32D
:1002C800008008BD00000000E4030024B8380108DD
:1002D80053B94AB9002908BF00281CBF4FF0FF31A5
:1002E8004FF0FF3000F074B9ADF1080C6DE904CEA1
:1002F80000F006F8DDF804E0DDE9022304B07047F9
:100308002DE9F047089D04468E46002B4DD18A42C0
:10031800944669D9B2FA82F252B101FA02F3C2F1F3
:10032800200120FA01F10CFA02FC41EA030E944084
:100338004FEA1C48210CBEFBF8F61FFA8CF708FBA5
:1003480016E341EA034306FB07F199420AD91CEB7D
:10035800030306F1FF3080F01F81994240F21C81AF
:10036800023E63445B1AA4B2B3FBF8F008FB1033F7
:1003780044EA034400FB07F7A7420AD91CEB04042C
:1003880000F1FF3380F00A81A74240F207816444FC
:10039800023840EA0640E41B00261DB1D440002381
:1003A800C5E900433146BDE8F0878B4209D9002DE5
:1003B80000F0EF800026C5E9000130463146BDE86F
:1003C800F087B3FA83F6002E4AD18B4202D38242D9
:1003D80000F2F980841A61EB030301209E46002D88
:1003E800E0D0C5E9004EDDE702B9FFDEB2FA82F2DD
:1003F800002A40F09280A1EB0C014FEA1C471FFA3B
:100408008CFE0126200CB1FBF7F307FB131140EA21
:1004180001410EFB03F0884208D91CEB010103F1EE
:10042800FF3802D2884200F2CB804346091AA4B2B0
:10043800B1FBF7F007FB101144EA01440EFB00FE84
:10044800A64508D91CEB040400F1FF3102D2A645E9
:1004580000F2BB800846A4EB0E0440EA03409CE788
:10046800C6F12007B34022FA07FC4CEA030C20FA35
:1004780007F401FA06F31C43F9404FEA1C4900FA55
:1004880006F3B1FBF9F8200C1FFA8CFE09FB1811D2
:1004980040EA014108FB0EF0884202FA06F20BD945
:1004A8001CEB010108F1FF3A80F08880884240F295
:1004B8008580A8F102086144091AA4B2B1FBF9F0D9
:1004C80009FB101144EA014100FB0EFE8E4508D9D4
:1004D8001CEB010100F1FF346CD28E456AD9023859
:1004E800614440EA0840A0FB0294A1EB0E01A1423E
:1004F800C846A64656D353D05DB1B3EB080261EBAC
:100508000E0101FA07F722FA06F3F1401F43C5E985
:10051800007100263146BDE8F087C2F12003D840BB
:100528000CFA02FC21FA03F3914001434FEA1C47FD
:100538001FFA8CFEB3FBF7F007FB10360B0C43EAEF
:10054800064300FB0EF69E4204FA02F408D91CEB9F
:10055800030300F1FF382FD29E422DD9023863449D
:100568009B1B89B2B3FBF7F607FB163341EA03413D
:1005780006FB0EF38B4208D91CEB010106F1FF388C
:1005880016D28B4214D9023E6144C91A46EA004683
:1005980038E72E46284605E70646E3E61846F8E615
:1005A8004B45A9D2B9EB020864EB0C0E0138A3E75E
:1005B8004646EAE7204694E74046D1E7D0467BE73F
:1005C800023B614432E7304609E76444023842E7B7
:1005D800704700BFFEE700BF0B480C4A904203D0AB
:1005E800121A0B4912F076FE0A480B4A904203D0C1
:1005F800121A002112F07CFE04F040FD12F046FEB3
:1006080000F0DAF8FEE700BF00000024E003002451
:10061800EC380108E003002414380024704700BFB8
:100628002DE9F04F604C82468846DFF888912046D5
:100638002DED048B85B0019200F082F9204600F080
:100648008FF904F1A80002F013F9B2EE047A04F16C
:10065800C80020EE077A9FED528BB7EEC77A37EEC7
:10066800087BB7EEC79B02F003F99FED507A04F1BF
:10067800E80020EE077AB7EEC77A37EE087BF7EE88
:10068800C79B02F0F5F894F84C31F0EE408A1BB1A4
:1006980094F852317F2B7DD099F8001094F85C3192
:1006A800434889F800101BB194F862317F2B6DD054
:1006B80003780370019B002B63D0AAF10403A8F10F
:1006C800040800270293BE00029C4546636804F1B3
:1006D800040B334493ED008A29EE088A29BB29EEDE
:1006E800880AB5EEC00AF1EE10FA40DDB1EE400A14
:1006F800039012F017FDB7EE007A039877EE407A70
:100708000378CBB167EEA87AB7EE007A55F8043FC4
:10071800A245334437EE687AE7EE087AC3ED007AEB
:1007280014D099F800105C46D0E7037813B168EE4E
:10073800887AE9E769EE887AB7EE007AF4EEC77A44
:10074800F1EE10FA09DDF0EE687ADDE70137019B7A
:10075800BB4216D099F80010B5E7BFEE007AF4EE68
:10076800C77AF1EE10FACDD5F1EE687ACCE70390AE
:1007780012F0D8FCF7EE007A0398037870EE677AE7
:10078800BFE705B0BDEC048BBDE8F08F037883F0BC
:1007980001038EE799F800C08CF001017EE700BFE5
:1007A800333333333333F33FFC0300240000C842B0
:1007B800DC0A0024DD0A002470B500211E4800F080
:1007C80069FD04211C4800F091F81C4E00231C4DC3
:1007D800194833702B7000F0AFF81A49164800F02A
:1007E80083F8337816211448002483F0010300EEBF
:1007F800103AB8EE400A00F02BFB2B7817210E4870
:1008080083F0010300EE103AB8EE400A00F020FB36
:100818009FED0D1AE1B20134B7EE000AF0EE410A7D
:10082800054800F047FA082CF2D1034800F07EF999
:10083800062004F03DFAD4E7FC030024DD0A002476
:10084800DC0A0024290600080000000010B50B4C43
:1008580000234FF400720A4904F2DE40236063610A
:100868002362E363C4F8C83412F034FD2046054A15
:100878000549BDE8104012F04FBC00BFFC0300243E
:1008880008330108000000242506000810B5037D80
:1008980082B0044601335BB20375037D5BB2012B62
:1008A80003DDFF23037502B010BD037D826859B2D2
:1008B80040FA83F3019001EB81110A44197B094B3B
:1008C80041F040010093412303F094FA0028EAD054
:1008D800204603F065FA0146204602B0BDE8104004
:1008E80003F0C8B99508000800F050BDF8B50546F2
:1008F80000F050FD05F1680405F59476284600F0EF
:1009080065FD2046203401F0D7FFB442F6D105F545
:100918008D6405F59B67284600F058FD23461C3476
:1009280083ED000ABC42F6D1284600F04FFD304660
:10093800BDE8F84001F0C0BF183002F0C1BA00BFEE
:1009480038B500F1680400F594752046203401F0AC
:100958008FFFAC42F9D12046BDE8384001F088BF8E
:1009680038B500F5A47400F5DC75403002F000F8E5
:100978002046103402F054F8AC42F9D138BD00BF1B
:100988002DE9F04F89B08446D0F8CC4404270DF106
:100998000F060DF107050DF117090DF11808B246FC
:1009A80040F6FE7E01965E4B04AEBCF8DEB493E8DA
:1009B800030002ABF34583E8030015F8012F4FEA63
:1009C800221102F00F0301EB811117FB03132344DB
:1009D800B3F80120C2F30B020BEB020188BF42F40B
:1009E8008052C1F30B01A3F80120A3F803104D496D
:1009F800019B03C986E803004B4913F8012F03C97B
:100A0800019302F00F0388E803001011BCF8DE140C
:100A180000EB8010714517FB03032344B3F8012052
:100A2800C2F30B0201EB020088BF42F48052C0F30C
:100A38000B00A3F80120A3F8030019F8013FBCF844
:100A4800DE141A1103F00F03714502EB821202EB58
:100A580083032344B3F80120C2F30B0201EB020025
:100A680042F4805BC0F30B00A3F8030052D9AA45F7
:100A7800A3F801B097D1B4F83D2040F6FE70BCF859
:100A8800DE14C2F30B028B18C3F30B03A4F83F3038
:100A980040F6FE739942B4F8663088BF42F480523B
:100AA800C3F30B03A4F83D20BCF8DE145A18C2F3B4
:100AB8000B02A4F8682040F6FE729142B4F86A204E
:100AC80088BF43F48053C2F30B02A4F86630BCF825
:100AD800DE148B18C3F30B03A4F86C3040F6FE73D6
:100AE8009942B4F86E3088BF42F48052C3F30B03C6
:100AF800A4F86A20BCF8DE145A188142C2F30B022B
:100B080088BF43F48053A4F87020A4F86E3009B06D
:100B1800BDE8F08FAA45A3F801207FF444AFAAE707
:100B280008350108543501086035010890F8DC34AF
:100B38001B06FBD5D0F8CC24FF21D0F8D034C0F860
:100B4800D024C0F8CC34B2F803C0A3F803C0B2F87C
:100B580007C0A3F807C0B2F80BC0A3F80BC0B2F8DF
:100B68000FC0A3F80FC0B2F813C0A3F813C0B2F8AF
:100B780017C0A3F817C0B2F81BC0A3F81BC0B2F87F
:100B88001FC0A3F81FC0B2F823C0A3F823C0B2F84F
:100B980027C0A3F827C0B2F82BC0A3F82BC0B2F81F
:100BA8002FC0A3F82FC0B2F833C0A3F833C0B2F8EF
:100BB80037C0A3F837C0B2F83BC0A3F83BC0B2F8BF
:100BC8003FC0A3F83FC0B2F844C0A3F844C0B2F88D
:100BD80048C0A3F848C0B2F84CC0A3F84CC0B2F85B
:100BE80050C0A3F850C0B2F854C0A3F854C0B2F82B
:100BF80058C0A3F858C0B2F85CC0A3F85CC0B2F8FB
:100C080060C0A3F860C0B2F864C0A3F864C0B2F8CA
:100C180068C0A3F868C0B2F86CC0A3F86CC0B2F89A
:100C280070C0A3F870C0B2F874C0A3F874C0B2F86A
:100C380078C0A3F878C0B2F87CC0A3F87CC0B2F83A
:100C480080C0A3F880C080F8DC1490F8DC3401334D
:100C58005BB280F8DC3490F8DC345BB2012B02DD47
:100C680080F8DC14704730B590F8DC1483B000F5D8
:100C780099640F4D4BB240FA81F1019403EB831054
:100C880091F8D41441230095024441F040012046D4
:100C980003F0B0F808B903B030BD204603F080F87F
:100CA8000146204603B0BDE8304002F0E3BF00BF74
:100CB80095080008DFED627A8446624A20EE270A2A
:100CC80030B589B08E46B5EEC00A02AB92E8030093
:100CD8005D4AF1EE10FA83E8030008A904AB8E44DC
:100CE80092E80300594A83E8030092E8030008AA3F
:100CF8001EF8183C02E9030007D4B4EEE70AF1EE47
:100D080010FA40F39680FF2200E000220CEB42022A
:100D1800DCF8CC04DFED4A7A40F6FE75B2F8DE4422
:100D28001A1103F00F0360EEA70A02EB8212AC421D
:100D380002EB8303F5EEC00A0344B3F80120C2F3C3
:100D48000B0204EB020188BF42F48052F1EE10FA64
:100D5800C1F30B01A3F80120A3F803101EF8103CFF
:100D680006D4F4EEE70AF1EE10FA5BDDFF2200E0AC
:100D780000220CEB4202DFED327A40F6FE75B2F843
:100D8800DE441A1103F00F0321EE271A02EB821238
:100D9800AC4202EB8303B5EEC01A0344B3F801205A
:100DA800C2F30B0204EB020188BF42F48052F1EE59
:100DB80010FAC1F30B01A3F80120A3F803101EF8E1
:100DC800083C06D4B4EEE71AF1EE10FA23DDFF2151
:100DD80000E000211A1103F00F030CEB410C40F660
:100DE800FE7402EB8212BCF8DEC402EB8302A44557
:100DF80000EB0203B3F80120C2F30B020CEB020173
:100E080088BF42F48052C1F30B01A3F80120A3F874
:100E1800031009B030BDFCEEC17ACDED017A9DF822
:100E28000410D7E7FCEEE07ACDED017A9DF80420B6
:100E38009FE7FCEEC07ACDED017A9DF8042065E7C6
:100E480000007F4308350108543501086035010862
:100E5800DFED217A84B0214B20EE270A04AA039300
:100E68001144B5EEC00A11F8042CF1EE10FA07D4BB
:100E7800B4EEE70AF1EE10FA26DD4FF0FF0C01E0C0
:100E88004FF0000C131102F00F01D0F8CC2400EB46
:100E98004C0C03EB8313BCF8DE0440F6FE7C03EB3A
:100EA800810360451344B3F80120C2F30B0200EB41
:100EB800020188BF42F48052C1F30B01A3F801205C
:100EC800A3F8031004B07047FCEEC07ACDED017AA8
:100ED8009DF804C0D6E700BF00007F430F191A1B16
:100EE8002DE9F04387B000270446A94905A8A94E73
:100EF800059702F0BFFE059B06F18402A64904F59A
:100F08009965C4F8C834FF23C4F8D4144FF0060E0A
:100F18003946C4F8D024C4F8CC6484F8DC3401E041
:100F2800D4F8CC640A1101F00F008B00013102EBF8
:100F380082129BB2202906F802E002EB8000D4F866
:100F4800CC74D4F8D06407EB000CACF80130ACF8E2
:100F5800033006F802E0D4F8D0240244A2F80130A5
:100F6800A2F80330DCD194F8D6340B2B0FD0B4F8A8
:100F7800D624012304F59B60A4F8D824A4F8DA3415
:100F8800039002F0B1F90021039802F097FA04F2F5
:100F9800D44704F2D6494FF0000817F8011B012680
:100FA800022304AA41F04001284600960391ADF8B7
:100FB800108002F0F7FE142003F07AFE022304AA40
:100FC800039928460096ADF8108002F0EBFE142035
:100FD80003F06EFE4FF4005202230399ADF810207F
:100FE800284604AA009602F0DDFE142003F060FEF5
:100FF800052343F20162039900932846ADF81020B7
:10100800022304AA02F0CEFEB945C6D12046FFF756
:10101800B7FC94F8DC341B06FBD5D4F8CC24D4F800
:10102800D034C4F8D024C4F8CC34B2F80310A3F8F0
:101038000310B2F80710A3F80710B2F80B10A3F8C2
:101048000B10B2F80F10A3F80F10B2F81310A3F892
:101058001310B2F81710A3F81710B2F81B10A3F862
:101068001B10B2F81F10A3F81F10B2F82310A3F832
:101078002310B2F82710A3F82710B2F82B10A3F802
:101088002B10B2F82F10A3F82F10B2F83310A3F8D2
:101098003310B2F83710A3F83710B2F83B10A3F8A2
:1010A8003B10B2F83F10A3F83F10B2F84410A3F871
:1010B8004410B2F84810A3F84810B2F84C10A3F83E
:1010C8004C10B2F85010A3F85010B2F85410A3F80E
:1010D8005410B2F85810A3F85810B2F85C10A3F8DE
:1010E8005C10B2F86010A3F86010B2F86410A3F8AE
:1010F8006410B2F86810A3F86810B2F86C10A3F87E
:101108006C10B2F87010A3F87010B2F87410A3F84D
:101118007410B2F87810A3F87810B2F87C10A3F81D
:101128007C10B2F88010A3F88010FF2184F8DC143A
:1011380094F8DC3401335BB284F8DC3494F8DC34A2
:101148005BB2012B04DD84F8DC1407B0BDE8F08342
:1011580094F8DC1401954BB244FA81F10F4C03EB7F
:10116800831091F8D41441230094024441F04001C3
:10117800284602F03FFE0028E7D0284602F010FE7D
:101188000146284602F076FD07B0BDE8F08300BFAF
:101198006C3501080000003000010B0095080008BC
:1011A800F0B54FF44073ABB006460222ADF80C30F0
:1011B8000AA8039906F1180701F060FC4FF4C06310
:1011C80002220DF13A00ADF8103006F168050499D5
:1011D800002401F053FC40F20113022213A8ADF8D9
:1011E8001430059901F04AFC4FF4817302220DF185
:1011F8005E00ADF81830069901F040FC4FF4E0634A
:1012080002221CA8ADF81C30079901F037FC40F207
:10121800024302220DF18200ADF82030089901F056
:101228002DFC022225A8ADF82420099901F026FCFE
:10123800042307220AA9384601F034FCE1B23846F3
:1012480001F054FE014630460134019100F0BEF829
:1012580000232846DFED0E0A203501991A4601F0D1
:10126800D5FA062CEAD12146384601F03FFE014660
:101278003046019100F0AAF80023DFED050A019934
:1012880006F594701A4601F0C1FA2BB0F0BD00BF04
:101298006F12033BF0B505462DED028B8BB005F5BB
:1012A800A4749FED318A019100F06EF801992846E7
:1012B80000F04CF92D4B06AF0FCB3E4607C73B80DD
:1012C80005F5DC7736F8023B20461034B0EE480AC4
:1012D800ADF81430059901F089FBBC42F2D14FF406
:1012E800007140F6061240F201739FED1F0AADF837
:1012F8000C1005F14000ADF8102005F16804ADF8B8
:10130800183005F594760399049A069B01F000FBC2
:101318002846FFF7E5FD2846FFF742FF302128461B
:1013280000F038F8284600F051F82046203401F043
:10133800C3FAB442F6D105F58D6405F59B672846D6
:1013480000F044F823461C3483ED000AA742F6D186
:10135800284600F03BF830460BB0BDEC028BBDE8E8
:10136800F04001F0A9BA00BF0000000010350108E4
:10137800044B06221A7083F8412083F8842083F8EE
:10138800C520704700000030704700BF143001F0DE
:1013980009BA00BF38B500F1140504462DED028BDB
:1013A800284601F0EDF9284601F0F8F92846B0EE94
:1013B800408A01F0E1F9D0ED007AF8EE677A88EE1C
:1013C800277ABDEC028B84ED0E7A38BD90ED0E0ABB
:1013D800704700BF10B540F203338EB000244FF6BB
:1013E8000B7240F20341ADF8083009A80123ADF8AB
:1013F8001020ADF824202246ADF80C100094029974
:1014080007940C94CDE90544CDE90A4401F070FE37
:1014180004A8012322460399009401F069FE09A853
:1014280001F04CFF10B901200EB010BD04A801F066
:1014380045FFA0420CBF022020460EB010BD00BFE1
:101448002DE9F04103239AB0012700240646CDE98F
:1014580014373B4BCDE9104340F20453CDE916470E
:10146800ADF84830FFF7B6FFB842054625D0022848
:1014780045D040F60132334B0DF12C081894ADF8E5
:101488002C200B981997CDF84A3000F0E3F810A9F2
:1014980006F13C0003F0ECF9302003224FF07E53B4
:1014A80041460D930E93CDE90B02F26B06F1140041
:1014B80001F02AF91AB0BDE8F0811023214A06A9E3
:1014C80006908DF828300DF12C081F4BCDF84A20D6
:1014D80007930294CDE91804CDE9080402A802F0A4
:1014E800C9FB0823029A03A94046ADF80C508DF8B1
:1014F8000E40049505930B9400F0ECF8C7E7002024
:101508000121104B0DF12C083A460094CDF84A30D1
:101518004FF60B730C94ADF82C302346CDE9180127
:1015280040F601314046ADF818100699CDE90D4452
:1015380001F0DEFD2146404601F0CCFEA7E700BFE2
:1015480004020404040604030704010B2DE9F04710
:1015580004462DED028B82B000294DD0012140F2C6
:10156800011200230091ADF804208DF80630364AA8
:101578000127364B04F10409354904F12908626052
:1015880040F20272A36040F60663E16004F1250AA6
:10159800A4F82520A4F82930278284F8277084F835
:1015A8002B7003F021FD054603F084FB69460646CF
:1015B80050BB4DB304F130008DF8067003F09CFC6D
:1015C800072D3CD104F114052046FFF739FF2846C2
:1015D80001F0E4F82846B0EE408A01F0CDF8D0EDED
:1015E800007AF8EE677A88EE277A84ED0E7A02B0F0
:1015F800BDEC028BBDE8F08740F2011300918DF835
:101608000610ADF80430B2E704F1300003F074FCC2
:10161800072D11D04946204602F0AAFD0EB9002D2B
:10162800D0D1504601F060FE404601F05DFE04F165
:10163800120000F079F9C5E7002EF2D1C2E7494659
:10164800204602F095FDBDE70508050905070506D2
:10165800050A060610B584B003460124ADF8040057
:1016680003A8ADF80C30ADF80E4001F03DFE214660
:1016780003A801F023FF204603F01AFB002103A86A
:1016880001F01CFF204603F013FB214603A801F0DC
:1016980015FF04B010BD00BF10B5C2F3002384B01D
:1016A8000C46017C8DF80D2043EA4402FA240223FB
:1016B8008DF80C2003AA009402F074FB18B10124E1
:1016C800204604B010BD04460A2003F0F1FA204673
:1016D80004B010BD034670B543F8042B044684B02B
:1016E80007C983E80700A37983B91A210B461E228C
:1016F800FA2523742046ADF80C20022303AA00958E
:1017080002F050FB28B1012004B070BD1B210B462C
:10171800EDE70A2003F0CCFA4FF4B8520095022303
:10172800ADF80C20204603AA217C02F03BFB0028E0
:10173800E9D10A2003F0BCFA41F2027200950223B3
:10174800ADF80C20204603AA217C02F02BFB0028D0
:10175800D9D10A2003F0ACFA042200950223ADF88F
:101768000C20204603AA217C02F01CFB0028CAD1C9
:101778000A2003F09DFA062200950223ADF80C20FA
:10178800204603AA217C02F00DFB0028BBD10A20C9
:1017980003F08EFA41F2082200950223ADF80C20DE
:1017A800204603AA217C02F0FDFA0028ABD10A20CA
:1017B800064603F07DFA0095022303AA217C204601
:1017C800ADF80C6002F0EEFA00289CD1304603F028
:1017D8006FFA009522790C232046002A8DF80C30E8
:1017E80003AA4FF0020314BF622142218DF80D10A5
:1017F800217C02F0D7FA002885D1304603F058FA48
:101808002279D4E902310B43DBB20AB943F0400331
:1018180062790AB143F020030E22FA258DF80D30C3
:101828002046009502238DF80C2003AA217C02F0A3
:10183800B9FA00287FF467AF0A2003F039FA1022BA
:1018480000950223ADF80C20204603AA217C02F063
:10185800A9FA00287FF457AF0A2003F029FA1221C9
:1018680000950223ADF80C1003AA217C204602F053
:1018780099FA00287FF447AF0A2003F019FA0122E9
:1018880009212046FFF708FF003818BF01203BE771
:10189800F0B5102387B0234C01220025012600272C
:1018A80002A920460195CDE902234FF48052CDE9E3
:1018B80004670BF0AFFB642003F03CFE02A94FF471
:1018C80080522046CDE9046702261027CDE9026739
:1018D8000BF0A0FB0322102302A92046CDE9022326
:1018E80000230422CDE904234FF480520BF092FB2D
:1018F80040F23223042202A9019310232046CDE9A5
:101908000223019A012305924FF4805204930BF0AD
:1019180081FB40F6060120460BF09CFB284607B0E9
:10192800F0BD00BFE80A00241C4B00221C494FF000
:10193800400C30B5054689B00220596007219A60ED
:101948001A620124DA620A224FF4006EDC60069201
:101958002022CDE9000104200821CDE9020103205D
:101968001021CDE9040108206946C3E904024FF4B7
:10197800C072181DC3E906C24FF48052C3E909E2D8
:101988000BF01EFB38B92846FFF782FF003818BF56
:10199800012009B030BD204609B030BDE40A00245A
:1019A80040410052614A0021D0B513688EB00A91B7
:1019B800002B40F0B9805E4B01214FF683700C2458
:1019C80011600221D3F8D4200026032742F4805264
:1019D800C3F8D420D3F8D42002F480520092009A9D
:1019E800D3F8E02042F01002C3F8E020D3F8E0205A
:1019F80002F010020192019AD3F8E02042F040026E
:101A0800C3F8E020D3F8E02002F040020292029AE4
:101A1800D3F8E02042F00802C3F8E020D3F8E02031
:101A280002F008020392039AD3F8E02042F480728D
:101A3800C3F8E020D3F8E02002F480720492049AFC
:101A4800D3F8E02042F08002C3F8E020D3F8E02089
:101A580002F080020592059AD3F8E02042F02002B5
:101A6800C3F8E020D3F8E02002F020020692069A9C
:101A7800D3F8E02042F00402C3F8E020D3F8E030C5
:101A88000C9403F0040307930323079A0B93CDE9FF
:101A9800080108A9274805F0D3FB48F237120223AA
:101AA80008A925480C94CDE90823CDE90A6705F073
:101AB800C7FB4CF20372022308A920480C94CDE915
:101AC8000823CDE90A6705F0BBFB40F2FF62022359
:101AD80008A91B480C94CDE90823CDE90A6705F04D
:101AE800AFFB4FF60C72022308A916480C94CDE9F7
:101AF8000823CDE90A6705F0A3FB4FF63F0202234E
:101B080008A911480C94CDE90823CDE90A6705F026
:101B180097FB2022022308A90A480C94CDE90A67FA
:101B2800CDE9082305F08CFB0EB0D0BDE00A0024F7
:101B3800004402580010025800180258000C0258BD
:101B480000200258001C0258001402582DE9F04FDA
:101B5800DFF8108406460D46144608F118002DEDEE
:101B6800028B89B000AF02F07BFFD8F8183073B34E
:101B7800D8F81C30D8F80490002B43690BBF4FF0FD
:101B8800080A4FF0100A4FF0020B4FF0040BB9F19E
:101B9800000F2AD0A200EA46012B02F1070222F028
:101BA8000702ADEB020D6846ADEB020D694600F089
:101BB8003F81022B00F0D680002B6FD02246C84709
:101BC800D5462437BD46BDEC028BBDE8F08FD8F86A
:101BD8001C30002BF5D0D8F804904FF0080A4FF0CD
:101BE800020B4369B9F1000FD4D1FB61D8F800307A
:101BF800BB61002BE5D0D54802F0A4FF6B46BBF1D2
:101C0800020F786108EE103AFB6900F083816A469A
:101C18005146A2EBC40295466200EA46B2FBFBF2CB
:101C2800AAEBC40085460AEB8200EE46F861ADEBEC
:101C3800010DF8690EEB820CC7F810C0EC46ADEB4D
:101C4800010D00EB8201CCF80400CCF8081001EB80
:101C580082013869E946CCF80C1000EB8201CCF817
:101C680000A001EB8202C9E900E0C9E90212012BD8
:101C780000F06483022B00F06C82002B00F080815E
:101C8800620849466046BB69984718EE103A2437FF
:101C98009D46BD46BDEC028BBDE8F08F002C8DD073
:101CA8001A46D8ED0C6A9FEDB27A8446331D36F990
:101CB80022E00CF1080C07EE90EA33F922E0023238
:101CC800F8EEE77A944267EE877A67EEA67A4CEDEB
:101CD800027A07EE90EAF8EEE77A67EE877A67EE1F
:101CE800A67A4CED017AE2D8F9612246C847984EA7
:101CF800D8ED0D6A0020F9692B1D9FED9E7A9FEDA6
:101D08009E6ADFED9E5A22E0F4EEC67AF1EE10FAF2
:101D1800C0F2C88447F6FE72D1ED017A45F820205A
:101D280066EEA77AF4EEC77AF1EE10FA40F2F08088
:101D3800F4EEC67AF1EE10FAC0F2D58447F6FE72D8
:101D480043F820200230083184427FF639AFD1EDC4
:101D5800007A66EEA77AF4EEC77AF1EE10FAD3D8D5
:101D68003246D9E7002C3FF429AFD8ED0C6A8446F7
:101D78009FED787A0022331D8E4656F822100CF11A
:101D8800080C07EE901A53F822100232F8EEE77AA0
:101D9800944267EE877A67EEA67A4CED027A07EEF0
:101DA800901AF8EEE77A67EE877A67EEA67A4CED36
:101DB800017AE2D871462246C7F81CE0C847664E49
:101DC800D8ED0D6A0020F9692B1D9FED6A7A9FED09
:101DD8006A6ADFF894C120E0F4EEC67AF1EE10FAF0
:101DE800C0F279843246D1ED017A45F8202066EEBA
:101DF800A77AF4EEC77AF1EE10FA40F28780F4EE93
:101E0800C67AF1EE10FAC0F25E84324643F820201A
:101E18000230083184427FF6D3AED1ED007A66EE07
:101E2800A77AF4EEC77AF1EE10FAD5D86246DAE767
:101E3800002C3FF4C3AED8ED0C6A86469FED477A76
:101E48004FF0000C331D56F82C200EF1080E82F4CA
:101E58000002A2F5000207EE902A53F82C200CF19C
:101E6800020CF8EEE77A82F400026445A2F500025B
:101E780067EE877A67EEA67A4EED027A07EE902A29
:101E8800F8EEE77A67EE877A67EEA67A4EED017A82
:101E9800D9D8F9612246C847314ED8ED0D6A0020DD
:101EA800F9692B1D9FED337A9FED336ADFF8BCC0CB
:101EB8001FE0F4EEC67AF1EE10FAC0F2FC83324667
:101EC800D1ED017A45F8202066EEA77AF4EEC77ABC
:101ED800F1EE10FA18D9F4EEC67AF1EE10FAC0F263
:101EE800DA83324643F820200230083184427FF6F4
:101EF80067AED1ED007A66EEA77AF4EEC77AF1EE16
:101F080010FAD6D86246DBE76246EBE762467DE721
:101F1800324615E7A100D6466208073121F00701CD
:101F2800ADEB010DEA46ADEB010D6946ADEB0E0DCB
:101F38000AEB8200EC46ADEB0E0D01EB8202F86174
:101F4800E946CCE900A0C9E9001290E6380B002464
:101F58000280FFFF000000300082FF7F0000003495
:101F680082FF7F001C0B0024007E00807E0080FF23
:101F78000000003804FF7FBF04FF7F3F00FEFF46DC
:101F8800002C00F0C982BBF1020FD8F8242000F021
:101F9800FA827969C7F8049002EB810E5FED0C5A5A
:101FA8008A00DCF808100EF104007A611A46DCF8A1
:101FB8000C303B61331DD7F810903D61FD69C7E9CE
:101FC80002CB8C46834636F92210D8ED0C7A06EE01
:101FD800101A33F9221006EE901A3EF92210B8EEC4
:101FE800C66A07EE101AF8EEE66A3BF92210B8EE58
:101FF800C77A26EE256A66EEA56A27EE257A26EECA
:10200800276A66EEA76A27EE277A07EE901A510824
:102018000232F8EEE77A0AEB8100944280ED006A1A
:1020280005EB810067EEA57AC0ED006A0CEB810034
:1020380009EB810180ED007A98ED0C7A67EE877ADA
:10204800C1ED007ABFD8D7F804903D69D7E902CB33
:1020580060466208BB6949469847D8F82C307A69C7
:10206800D8ED0D6A1A441FED3D7A1FED3D6A2B1D10
:10207800904602F1040A5FED3F5A0022A84ED9E9C2
:1020880000EC51E0F4EEC67AF1EE10FAC0F2C78225
:1020980047F6FE7045F822000CEB0100D0ED007AFF
:1020A80066EEA77AF4EEC77AF1EE10FA4BD9F4EEA1
:1020B800C67AF1EE10FAC0F2BA8247F6FE70BBF1AA
:1020C800020F43F822002BD0D9F808000844D0EDBD
:1020D800007A66EEA77AF4EEC77AF1EE10FA36D9EE
:1020E800F4EEC67AF1EE10FAC0F2CD8247F6FE7031
:1020F80048F82200D9F80C000144D1ED007A66EEC8
:10210800A77AF4EEC77AF1EE10FA1ED9F4EEC67A81
:10211800F1EE10FAC0F2AF8247F6FE714AF82210CB
:10212800023294427FF6B1AD51080EEB810089006E
:10213800D0ED007A66EEA77AF4EEC77AF1EE10FADF
:10214800A0D83046A6E73046B9E73146E6E730463C
:10215800CEE7002C00F0E081BBF1020FD8F8243064
:1021680000F0E1817A69DCF8081003EB820EC7F809
:1021780004909300DFED6B5A0EF1040000227B619E
:10218800DCF80C303B61331DD7F810903D61FD69D8
:10219800C7E902CB8C46834656F82210D8ED0C7A54
:1021A80007EE101A53F82210B8EEC76A07EE101A95
:1021B8005EF82210F8EEC76A07EE101A26EE256AB6
:1021C8005BF82210B8EEC77A66EEA56A26EE276A93
:1021D80027EE257A66EEA76A27EE277A07EE901A89
:1021E80051080232F8EEE77A0AEB8100944280ED5A
:1021F800006A05EB810067EEA57AC0ED006A0CEB7A
:10220800810009EB810180ED007A98ED0C7A67EE88
:10221800877AC1ED007ABFD8D7F804903D69D7E92D
:1022280002CB60466208BB6949469847D8F82C300B
:102238007A69D8ED0D6A1A449FED3E7A9FED3E6AA1
:10224800131D9246DFF8E4C00022FB612B1D364EB9
:10225800D9E9008E4EE0F4EEC67AF1EE10FAC0F23B
:10226800FC81304645F822000EEB0100D0ED007AE3
:1022780066EEA77AF4EEC77AF1EE10FA49D9F4EED1
:10228800C67AF1EE10FAC0F2EF813046BBF1020FC8
:1022980043F822002AD0D9F808000844D0ED007A83
:1022A80066EEA77AF4EEC77AF1EE10FA35D9F4EEB5
:1022B800C67AF1EE10FAC0F2C98130464AF8220017
:1022C800D9F80C000144D1ED007A66EEA77AF4EE55
:1022D800C77AF1EE10FA1ED9F4EEC67AF1EE10FACA
:1022E800C0F2AD813146F86940F8221002329442BA
:1022F8007FF6CBAC510808EB81008900D0ED007A5D
:1023080066EEA77AF4EEC77AF1EE10FAA3D8604623
:10231800A8E76046BAE76146E5E76046CEE700BF52
:102328000280FFFF000000300082FF7F007E0080F7
:102338000000003404FF7FBF04FF7F3F002C00F043
:10234800EB807A690021D8F82430C7F8109003EBA5
:10235800820ED7F81C909300FD610EF104021FED68
:102368000C6A7B61331D154656F821204808D8EDC4
:102378000C6ABBF1020F82F40002A2F5000207EE1C
:10238800902A53F8212082F40002B8EEE77AA2F5E9
:10239800000227EE067A07EE902A0AEB8002F8EE92
:1023A800E77A27EE267A67EE867A82ED007A09EBDD
:1023B80080024FEA800067EEA67AC2ED007A27D045
:1023C8005EF8212082F40002A2F5000207EE902AAE
:1023D80055F8212082F40002B8EEE77AA2F500024F
:1023E80027EE067A07EE902ADCF80820F8EEE77A5E
:1023F800024427EE267A67EE867A82ED007A98ED17
:102408000C7ADCF80C2067EE877A0244C2ED007A79
:1024180002318C42A8D8D7F8109060466208BB6990
:102428004946FD699847D8F82C307A69D8ED0D6A85
:102438001A441FED407A1FED406A131D9246DFF8DB
:10244800C4C20022FB612B1DAB4ED9E9008E4EE0C1
:10245800F4EEC67AF1EE10FAC0F2C580304645F8BF
:1024680022000EEB0100D0ED007A66EEA77AF4EEBA
:10247800C77AF1EE10FA49D9F4EEC67AF1EE10FAFD
:10248800C0F2BF803046BBF1020F43F822002AD0C9
:10249800D9F808000844D0ED007A66EEA77AF4EE81
:1024A800C77AF1EE10FA35D9F4EEC67AF1EE10FAE1
:1024B800C0F2AE8030464AF82200D9F80C00014438
:1024C800D1ED007A66EEA77AF4EEC77AF1EE10FA4B
:1024D8001ED9F4EEC67AF1EE10FAC0F28B803146BE
:1024E800F86940F82210023294427FF6CEAB5108C8
:1024F80008EB81008900D0ED007A66EEA77AF4EE49
:10250800C77AF1EE10FAA3D86046A8E76046BAE7A2
:102518006146E5E76046CEE7224649466046BB6924
:102528009847FFF7B2BBC7F810B0002298ED0C6AC5
:10253800331DDFED726AD7F81CB0786956F822109F
:1025480007EE901A53F82210B8EEE77A07EE901AC1
:1025580051080232F8EEE77A27EE267A0AEB810E66
:1025680094420BEB810167EEA67A27EE067A67EEB6
:10257800867A8EED007AC1ED007ADFD88300D7F82D
:1025880010B07B614DE61A46C7F810B098ED0C6A9A
:10259800331DDFED5B6AD7F81CB0786936F9221075
:1025A80007EE101A33F9221007EE901AB8EEC77A20
:1025B80051080232F8EEE77A27EE267A0AEB810E06
:1025C80094420BEB810167EEA67A27EE067A67EE56
:1025D800867A8EED007AC1ED007ADFD88300D7F8CD
:1025E80010B07B6134E5F0EE675AFEEEE45A15EE62
:1025F800900A34E7F0EE675AFEEEE45A15EE901AA8
:102608006EE7F0EE675AFEEEE45A15EE900A3AE7E6
:10261800F0EE675AFEEEE45A15EE900A4BE767EEC5
:10262800A57AFDEEE77A17EE900A00B232E567EE7A
:10263800A57AFDEEE77A17EE900A00B23FE5F0EED4
:10264800675AFEEEE05A15EE901A4CE6F0EE675A1D
:10265800FEEEE05A15EE900A30E6F0EE675AFEEE0E
:10266800E05A15EE900AFDE5F0EE675AFEEEE05AE4
:1026780015EE900A0AE667EEA57AFDEEE77A17EE00
:10268800901A09B24AE567EEA57AFDEEE77A17EEE9
:10269800900A00B22CE5F0EE675AFEEEE45A15EE09
:1026A800902A1FE467EEA57AFDEEE77A17EE902AE6
:1026B80012B2FFF731BBF0EE675AFEEEE45A15EEA0
:1026C800902AFFF7FDBBF0EE675AFEEEE05A15EED2
:1026D800902AFFF79BBBF0EE675AFEEEE05A15EE24
:1026E800902AFFF780BB67EEA57AFDEEE77A17EE32
:1026F800902A12B2FFF724BB82FF7F00000000304F
:10270800000000387E0080FF30B5184C154685B0B3
:10271800046004F1080EEC460FC98EE80F00D4EDF2
:10272800047AF5EEC07A8CE80F00F1EE10FA1ADDA3
:10273800B7EE006A94ED057A27EE277AC6EE276A87
:1027480084ED0D7AC4ED0C6A6DB1204640F8185F2F
:1027580002F086F9064903690020064A2162A2624E
:10276800E36005B030BD012005B030BD1C0B00246E
:10277800082100300801003000680830704700BFA9
:10278800B1F5807F03680A4628BF4FF48072B1F51F
:10279800807F9A6094BF002001207047006818303D
:1027A80002F0BEB930B5046883B00D46E3694BB199
:1027B800A3680020E26A616A9B00009004F11C0093
:1027C80002F050F9A3680748A26A9B00216A0090AA
:1027D80004F1180002F046F90020C4E9005003B0E3
:1027E80030BD00BF551B000810B4074B4FF07E5199
:1027F80030240022032019619C60D8605DF8044BE6
:102808005961C3E9062270471C0B0024F6EE007AD2
:102818009FED166A20EE207A0160F7EE006A80EDDF
:10282800036A80ED020A27EE277AC6EE877AF4EE6D
:10283800E67AF1EE10FA11DDF0EE667A4FF07E518D
:102848004FF0000C02760022C0ED017AC0F814C0E7
:10285800016143768276C0ED070A7047F4EEC67AC6
:10286800F1EE10FAEAD5F0EE467AE7E7000000004C
:102878000268037E128807EE902AFBEEC87A1BB125
:10288800B7EE007A77EE677AD0ED056A90ED047AB4
:1028980077EEE67A437E67EE877A0BB1F1EE677AD8
:1028A80090ED030A90ED017A77EEC07AA7EE270A39
:1028B80080ED030A704700BF837E80ED020AABB942
:1028C800D0ED077A27EE800AF6EE007AB7EE007AA6
:1028D80020EE270AC7EE007AF4EEC77AF1EE10FA76
:1028E80007DDF0EE477AC0ED017A7047DFED067A32
:1028F800E8E7F5EEC07AF1EE10FAF4D5DFED037AE9
:10290800C0ED017A704700BF6F12033B0000000062
:1029180030B585B004460025ADF80C10ADF8082098
:10292800ADF8043002F0C2F9BDF80C204FF4807302
:10293800206004F118002283BDF808206383E38334
:10294800A283257100F0D0FC04F11C0000F0CCFC3F
:102958009FED060A019904F1080000F047F84FF6C8
:10296800FF736562238405B030BD00BF000000001E
:10297800F8B5044602F09AF90026236826718342C6
:1029880005D104F10800BDE8F84000F049B8012776
:1029980094F82050206004F11800BD40277100F021
:1029A8007FFD6DB2284394F82150BD4084F8200083
:1029B80004F11C0000F074FD94F820306DB26662DA
:1029C80003F003032843022BC0B284F8210009D086
:1029D80000F003000228D4D1002BD2D14FF0FF33EE
:1029E8006362CEE78307CCD16762CAE770B5044655
:1029F80082B0C1F30726CDB2ADF8041002F056F943
:102A08004FF480724FF001232060A01DA571A280B1
:102A1800E671A36002B0BDE8704000F065BC00BF7D
:102A280038B5044602F042F9002223682271834235
:102A380010D00122A57AE37A954020602271A01D6A
:102A48006DB243B900F02CFD40B22843C0B27F28D4
:102A5800A0720AD038BD00F023FDB0FA80F040091A
:102A68002843C0B27F28A072F4D102F01FF907EE04
:102A7800900AF8EE677AC4ED037A38BD00B583B0E2
:102A88004FF0000E4FF0030C4274ADF80410BDF87F
:102A9800043080F810E0A0F802C0038003B05DF8AD
:102AA80004FB00BF2DE9F04FDFF81C8300258DB033
:102AB800C04C037008F140034260074601920E467D
:102AC800202229464046C4F86831C4F86481CDE91B
:102AD8000255CDE90455CDE90655CDE90855CDE9AE
:102AE8000A5510F005FC2022294604F5A170C4F807
:102AF8003151C4F83551C4F83951C4F83D5110F07A
:102B0800F7FB019B84F8485284F830317A68002A30
:102B18006AD02B4604F59871454606F1100A9E4680
:102B2800F01856F803B0E2180EF1010ED0F80CC0F8
:102B3800D0F80490D0F8088044F803B0C2F80CC06C
:102B48004FF0000CC2F80490C2F80880008A25F8FB
:102B580002CB10821AF8032001F8012F002A70D046
:102B68007A684FF001001233724584F84802D7D8CA
:102B78004FF4802290489DF8043008214FF0000857
:102B88004FF00009C4F884310023C4E95B02012234
:102B9800C4F8743184F88031C4E95E2194F848128D
:102BA800C4E96489A9B3C4F89821002284F8813162
:102BB80084F888313B78C4E96722002B38D0012299
:102BC80000200121013B84F8A421C4E96C01082BF1
:102BD80030D8DFE813F0BD00C200C700CC00D10038
:102BE800D600DB00E100E8009DF804300121C4F8BC
:102BF8007421C4F884314FF4802384F880216E4A0C
:102C0800C4E95B2308230022C4E95E130023C4E956
:102C180064230123002284F88131002384F8883159
:102C28000323C4F898313B78C4E96722002BC6D146
:102C380084F8A431614803F0B5F8034638B1FFBE03
:102C4800FEE77A68123372453FF66AAF90E702A949
:102C58005A48029303F004FA8246002876D10422E7
:102C680040F2FF710A90CDE9081294F83021002A49
:102C780000F0F3804FF006080AEBCA034FEACA09CE
:102C880004EB43035B7C072B07D8DFE803F0595CB0
:102C98005653504D4A04072307930FFA8AF6D14436
:102CA80006EBC60604EB490904EB460775003846EF
:102CB80000F01AFB99F81030042B00F3AA80022BBD
:102CC80000F3BD8000F0B98004EB0A03002283F80A
:102CD800202114F81630002B78D0022B00F08A80BF
:102CE800012B40F0B2807B78012B00F0B080002BE4
:102CF800334B18BF002305A93048CDE9053802F049
:102D08007DFC002840F0AC800AF1010A94F83031CB
:102D18005FFA8AFA534540F2A0802A4B53F82A807A
:102D2800AAE706230793B8E705230793B5E7042323
:102D38000793B2E703230793AFE702230793ACE7B0
:102D480000230793A9E701230793A6E7FFBEFEE741
:102D580003224023C4E96A236CE707226023C4E9FD
:102D68006A2367E70F228023C4E96A2362E71F22E8
:102D7800A023C4E96A235DE73F22C023C4E96A238C
:102D880058E77F22E023C4E96A2353E7FF224FF480
:102D98008073C4E96A234DE740F2FF124FF4907341
:102DA800C4E96A2346E740F2FF324FF4A073C4E94E
:102DB8006A233FE7580B002400200240C40C00247B
:102DC8000002B02580350108084100307B78062BC9
:102DD80037D0072B3DD0022B4AD0032B4AD0002BEB
:102DE8004CD0012B48D0042B4AD0052B254B18BFBB
:102DF800002380E77B78042B25D0052B2BD08BB3C1
:102E0800012B31D0022B31D0032B1F4B18BF0023CD
:102E180071E70323043504EB0A0B4FF0000925443E
:102E28008BF82031284609F1010900F05DFA9BF87A
:102E3800203104354B45F5DC4BE70123EAE7022353
:102E4800E8E7124B57E7124B55E7002353E7114BBE
:102E580051E7114B4FE7114B4DE70DB0BDE8F08F2F
:102E6800FFBEFEE70E4B46E70E4B44E70E4B42E72C
:102E78000E4B40E70E4B3EE70E4B3CE70E4B3AE756
:102E88000E4B38E70000B84F002090360800900C31
:102E98001000C0102000F0148000501D0001802197
:102EA8000004002A0008302E001060320040C03AAA
:102EB8000080F03E00005247000021430000844B90
:102EC80038B5094C40F2FF724FF0011104F5B675A0
:102ED800284603F073F894F83021D4F86411284692
:102EE800BDE8384002F0DEBD580B0024034B0F2923
:102EF800D3F8640198BF00EB41007047580B0024D9
:102F0800214B02689A4200D07047204A002320488B
:102F1800D2F8D81030B51F4C41F0200183B0C4F866
:102F2800D001092004F5E875C4E975034FF4806001
:102F3800C2F8D810D2F8D8204FF40061C4E977302D
:102F480094F8480202F02002C4F8E4114FF400514A
:102F5800984201922846C4F8E811C4E97C33019BE1
:102F680014BF00234FF48073C4F8EC3103F09EFAC9
:102F780008B1FFBEFEE704F5B673C4F8B851C4F84B
:102F8800083203B030BD00BF0020024000440258A0
:102F980040000240580B0024014803F0FFBD00BF69
:102FA800280D002402682DE9F84F4B4B9A4201D0B6
:102FB800BDE8F88F494D95F84832002BF8D095F8C0
:102FC8003031002B77D0002405F10C0905F5A176E6
:102FD80005F59877A04613E003F0010117F811BC36
:102FE800A9F1080000F06AFABBF1010F25D895F89D
:102FF8003031013409F112090236A2B293422BD9B9
:1030080017F8012F002AF4D0D5F86431002132785E
:1030180033F81400D5F8683103EB041323F81200D1
:10302800338801339BB233805FFA83FA3A789A4245
:10303800D2D88A46A6F80080D0E7CAF34001A9F1A1
:10304800040000F03BFABBF1020FCAF38001CED0B6
:10305800484600F033FACAE7002395F848022049A9
:1030680009229842C5F8D8314FF48060C5F8D011CC
:10307800C5F8D4214FF400614FF40052C5F8DC3193
:1030880008BF4FF48073C5F8E821C5E9780100222C
:103098001448C5E97B32C5F8F42103F007FA08B1F2
:1030A800FFBEFEE795F83021D5F864110E48BDE85B
:1030B800F84F02F0F7BC0A4909224FF48060C5F8BE
:1030C800D831C5E974124FF400614FF40052C5E9D4
:1030D8007730C5E97912DAE700200240580B00245E
:1030E80040000240280D0024C40C0024704700BF93
:1030F80010B592B0ADF804100180C9B2149C0B2928
:10310800C460C0E901233FD090F801C0BCF10F0FA3
:103118003AD8022A3FD0032A02D0012A00D000223E
:103128000E92012B02D0022B18BF0023022C0F9302
:103138002CD0032C2AD0012C28D000230A29109344
:1031480027D85C4A02EB812202610A2914D8DFE8F9
:1031580001F0A39587796B5D4F4133250600564BE7
:10316800D3F8E01041F48061C3F8E010D3F8E03000
:1031780003F480630C930C9B01230DA9104603FAFA
:103188000CF30D9304F05CF812B010BD0A291094EA
:10319800D7D90022D8E711220E92C2E7464BD3F8BE
:1031A800E01041F40071C3F8E010D3F8E03003F404
:1031B80000730B930B9BDFE73F4BD3F8E01041F410
:1031C8008071C3F8E010D3F8E03003F480730A93F9
:1031D8000A9BD1E7384BD3F8E01041F08001C3F8DF
:1031E800E010D3F8E03003F080030993099BC3E7AC
:1031F800314BD3F8E01041F04001C3F8E010D3F8A8
:10320800E03003F040030893089BB5E72A4BD3F856
:10321800E01041F02001C3F8E010D3F8E03003F0EB
:1032280020030793079BA7E7234BD3F8E01041F04F
:103238001001C3F8E010D3F8E03003F01003069350
:10324800069B99E71C4BD3F8E01041F00801C3F83E
:10325800E010D3F8E03003F008030593059B8BE7F3
:10326800154BD3F8E01041F00401C3F8E010D3F88F
:10327800E03003F004030493049B7DE70E4BD3F87E
:10328800E01041F00201C3F8E010D3F8E03003F099
:1032980002030393039B6FE7074BD3F8E01041F059
:1032A8000101C3F8E010D3F8E03003F00103029302
:1032B800029B61E7000002580044025808B501214A
:1032C80043780069994089B204F0C2F9003818BF00
:1032D800012008BD01230A464178006903FA01F17B
:1032E80089B204F0BBB900BF8378022B30B504461D
:1032F8008FB037D0032B33D0012B31D000230A9362
:10330800E378012B2AD0022B28D000230B9300232B
:1033180020460C9301F0ECFF0546204601F0F0FF33
:1033280023780990082B13D8DFE803F01F3245589B
:103338006B7E91A40500594BD3F8E02042F48072CB
:10334800C3F8E020D3F8E03003F480730893089BB7
:1033580009A9284603F074FF0FB030BD0B93D6E7D8
:103368000A93CDE711230A93CAE74C4B09A92846CB
:10337800D3F8E02042F00102C3F8E020D3F8E030AF
:1033880003F001030093009B03F05AFF0FB030BD18
:10339800424B09A92846D3F8E02042F00202C3F8BC
:1033A800E020D3F8E03003F002030193019B03F01F
:1033B80047FF0FB030BD394B09A92846D3F8E020A4
:1033C80042F00402C3F8E020D3F8E03003F004032D
:1033D8000293029B03F034FF0FB030BD2F4B09A9B5
:1033E8002846D3F8E02042F00802C3F8E020D3F8DA
:1033F800E03003F008030393039B03F021FF0FB0B1
:1034080030BD264B09A92846D3F8E02042F0100227
:10341800C3F8E020D3F8E03003F010030493049BD2
:1034280003F00EFF0FB030BD1C4B09A92846D3F896
:10343800E02042F02002C3F8E020D3F8E03003F0A7
:1034480020030593059B03F0FBFE0FB030BD134B23
:1034580009A92846D3F8E02042F04002C3F8E0204A
:10346800D3F8E03003F040030693069B03F0E8FE30
:103478000FB030BD094B09A92846D3F8E02042F027
:103488008002C3F8E020D3F8E03003F0800307930C
:10349800079B03F0D5FE0FB030BD00BF00440258B3
:1034A80038B5054601F024FF0446284601F028FFF8
:1034B80001462046BDE8384004F0CAB870B5064653
:1034C8000D4601F015FF0446304601F019FF2A1E8B
:1034D8000146204618BF0122BDE8704004F0BEB87E
:1034E8002DE9F84F04460E461746984600F18C051C
:1034F800284606F0B1F92028FAD120682E4B012879
:10350800636106D0022843D000283ED00120BDE8E0
:10351800F88F2423A3614023002004F11409E361F8
:103528004FF480632062A0636362C4E90A00C4E9BF
:103538000C00C4E91000484602F0B8FF08B1FFBE0D
:10354800FEE7C4F8C490E564EFF3108A72B6DFF8BA
:10355800709094F900300A9ADFF868B089F8003062
:10356800CBF80020E3680B9A144C22609BB97100D9
:1035780043463A46284689B204F008FF90B9BAF1A2
:10358800000FC4D162B6BDE8F88F2223A361C2E759
:103598004A23A361BFE742463946284605F068F842
:1035A8000028ECD0FF23012089F800300023CBF855
:1035B80000302360E3E700BFA0000240AC0D002408
:1035C800A80D0024A40D00242DE9F84F04460E464A
:1035D8001746984600F18C05284606F03DF9202844
:1035E800FAD120682D4B0128636106D0022842D009
:1035F80000283DD00120BDE8F88F2323A3610020D7
:103608004FF4806304F11409A0636362C4E90700FE
:10361800C4E90A00C4E90C00C4E91000484602F0F5
:1036280045FF08B1FFBEFEE7C4F8C890E564EFF3B4
:10363800108A72B6DFF86C9094F900300A9ADFF8B5
:1036480068B089F80030CBF80020E3680B9A144C76
:1036580022609BB9710043463A46284689B204F075
:103668004FFF90B9BAF1000FC5D162B6BDE8F88F27
:103678002123A361C3E74923A361C0E74246394632
:10368800284605F061F80028ECD0FF23012089F8CE
:1036980000300023CBF800302360E3E7A0000240AD
:1036A800AC0D0024A80D0024A40D00240023122230
:1036B80070B586B0CDE9022304930368032B01D8C3
:1036C80004230593061D841D304601F011FE0546AE
:1036D800304601F015FE034601A92846019303F080
:1036E800AFFD204601F004FE034620461C4601F0CB
:1036F80007FE01A903462046019303F0A1FD06B089
:1037080070BD00BF634A0368934210B58CB028D0DF
:10371800614A934258D0614A934200F09480604ACB
:10372800934201D00CB010BD5E4C5F48D4F8E03035
:1037380043F00203C4F8E030D4F8E03003F00203A9
:103748000A930A9BFFF7B2FFD4F8F43043F08003E2
:10375800C4F8F430D4F8F43003F080030B930B9BD7
:10376800E0E7504C5148D4F8E03043F00203C4F885
:10377800E030D4F8E03003F002030193019BFFF737
:1037880095FFD4F8E83000221F2043F400131146B7
:10379800C4F8E830D4F8E83003F400130293029B2D
:1037A800D4F8D83043F00103C4F8D830D4F8D8306E
:1037B80003F001030393039B02F0C6FC1F200CB027
:1037C800BDE8104002F0FEBC364C3948D4F8E03071
:1037D80043F08003C4F8E030D4F8E03003F080030D
:1037E8000493049BD4F8E03043F00203C4F8E030BB
:1037F800D4F8E03003F002030593059BFFF756FF6A
:10380800D4F8E8300022212043F480031146C4F89C
:10381800E830D4F8E83003F480030693069BD4F824
:10382800D83043F00103C4F8D830D4F8D83003F0C6
:1038380001030793079B02F087FC21200CB0BDE829
:10384800104002F0BFBC1B48FFF730FF154B0022A9
:103858004820D3F8E840114644F40004C3F8E8408F
:10386800D3F8E84004F400040894089CD3F8D8403E
:1038780044F00104C3F8D840D3F8D83003F001036A
:103888000993099B02F060FC48200CB0BDE8104089
:1038980002F098BC0054004000580040005C004012
:1038A800001C00580044025838100024B00D0024B1
:1038B800880E0024600F00242DE9F0431A4B87B0CE
:1038C80000254FF010099E46EC46184BFF22E046B3
:1038D80067461A700EF118060EF13004CDE900554E
:1038E800CDE90255ADF80090BCE80F00CDE90455CC
:1038F800AEE80F009CE803000095ADF800908EE854
:103908000300B8E80F000FC69CE803000095ADF867
:10391800009086E803000FCF0FC49CE8030084E8FA
:10392800030007B0BDE8F08304000024A80D0024BC
:1039380010B5EFF3108472B6084B1A78120602D548
:1039480004B962B610BD1B78D82205485BB202FBE9
:103958000300143003F022F9F2E700BFA80D002499
:10396800B00D0024014804F05DBF00BF3C0E0024E8
:10397800014804F057BF00BF140F0024014804F0A9
:1039880051BF00BFEC0F00242DE9F04182B0EFF3E6
:10399800108772B61C4AFF211C4C1368217023B192
:1039A800002111601A4A1068984723781B0617D51A
:1039B800DFF864800025174E444662685AB163698F
:1039C800304693B923690193E368009323892188DA
:1039D800FFF786FD90B101351834D836032DECD1A8
:1039E80007B962B602B0BDE8F081D4E90331CDE988
:1039F800003123892188FFF7E7FDEBE705EB450553
:103A080008EBC5056860EBE7A40D0024A80D0024A9
:103A1800AC0D0024B00D0024040000242DE9F04171
:103A280082B0EFF3108772B61C4AFF211C4C136852
:103A3800217023B1002111601A4A10689847237831
:103A48001B0617D5DFF864800025174E44466268C8
:103A58005AB16369304693B923690193E3680093C7
:103A680023892188FFF73CFD90B101351834D836F9
:103A7800032DECD107B962B602B0BDE8F081D4E9F4
:103A88000331CDE9003123892188FFF79DFDEBE75C
:103A980005EB450508EBC5056860EBE7A40D0024B8
:103AA800A80D0024AC0D0024B00D0024040000244F
:103AB8002DE9F04182B0EFF3108772B61C4AFF215E
:103AC8001C4C1368217023B1002111601A4A106838
:103AD800984723781B0617D5DFF864800025174E12
:103AE800444662685AB16369304693B923690193C1
:103AF800E368009323892188FFF7F2FC90B1013530
:103B08001834D836032DECD107B962B602B0BDE837
:103B1800F081D4E90331CDE9003123892188FFF709
:103B280053FDEBE705EB450508EBC5056860EBE7DA
:103B3800A40D0024A80D0024AC0D0024B00D002411
:103B4800040000242DE9F04182B0EFF3108772B62B
:103B58001C4AFF211C4C1368217023B100211160FD
:103B68001A4A1068984723781B0617D5DFF864802F
:103B78000025174E444662685AB16369304693B9C6
:103B880023690193E368009323892188FFF7A8FC40
:103B980090B101351834D836032DECD107B962B687
:103BA80002B0BDE8F081D4E90331CDE900312389C1
:103BB8002188FFF709FDEBE705EB450508EBC5058F
:103BC8006860EBE7A40D0024A80D0024AC0D0024C8
:103BD800B00D0024040000242DE9F04182B0EFF379
:103BE800108772B604F0C4F91D4A1E4CFF211368F1
:103BF80021702BB10021116001211B4A10689847E0
:103C080023781B0617D5DFF868800025174E444631
:103C180062685AB16369304693B923690193E368CE
:103C2800009323892188FFF75BFC90B10135183494
:103C3800D836032DECD107B962B602B0BDE8F081E1
:103C4800D4E90331CDE9003123892188FFF7BCFC91
:103C5800EBE705EB450508EBC5056860EBE700BF3A
:103C6800A40D0024A80D0024AC0D0024B00D0024E0
:103C7800040000242DE9F0430F68D8243F4D85B097
:103C880007FB04F4032F05EB0403036040DCCB6857
:103C98000E46012B3CD84DD04FF0D808B646DFF879
:103CA800FC9008FB0758BEE80F00C446ACE80F00BC
:103CB800DEF800300DF1100ECCF80030D8F808C04E
:103CC80099E80F000EE90F000EEB8703BCF1010F16
:103CD80053F8103CC8F88C3031D0BCF1020F42D0F8
:103CE800BCF1000F35D0317C8C34D8230022012060
:103CF8002C4403FB07534900C3E92602C3F8941078
:103D08002046C3E92822C3E92A2204F031F918B170
:103D1800012005B0BDE8F0830146204605F0A0FD6E
:103D28000028F5D10146204605F0C4FD003818BF2B
:103D38000120EEE70B7C103B672BADD9E8E701F0DB
:103D480051F90F4B98420CBF0E4B0F4BC8F89030EF
:103D5800C9E701F047F90A4B98420CBF0B4B0C4BD3
:103D6800C8F89030BFE701F03DF9054B98420CBF09
:103D7800084B094BC8F89030B5E700BFB00D0024D8
:103D8800000E27072D0FB0303211D0205F4390600E
:103D98008A62E030200BA0101A0980102035010833
:103DA800006870472DE9F041D0F8008082B00D46D8
:103DB80017461E4608F18C04204605F04DFD2028C4
:103DC800FAD1D8F80C3073B96D002046089C3346F8
:103DD8003A46A9B2009404F021F9003818BF01202E
:103DE80002B0BDE8F081089B32463946204604F00F
:103DF800E9F9F2E700682DE9F0410468032CDDE9F0
:103E0800067821D0124D2D782D0617D48E469C4663
:103E1800EFF3108372B60F4D04EB4404002025F82D
:103E2800341005EBC4046260A4F808C06061C4E9FA
:103E380003780BB962B61846BDE8F081CDE906787B
:103E4800BDE8F041FFF74CBB0120BDE8F08100BFA1
:103E5800A80D002404000024044B10221A7483F8CF
:103E6800E82083F8C02183F898227047B00D002419
:103E780030B5002395B04FF48071062204460B93A9
:103E880006921393CDE90C13CDE90E33CDE9113326
:103E980001F0AAF807282BD004F1100541F2883266
:103EA80006A9284606F018FB28B10123184684F80D
:103EB8005C3015B030BD0222022306A92846CDE9A0
:103EC800002310220123CDE9022300224FF48003AE
:103ED800CDE9042305224FF0807306926A460F93BA
:103EE80041F2883306F064FC0028DED115B030BDFD
:103EF8000323012084F85C3015B030BD00000000B9
:103F080070B50023A4B04FF080724FF4807504465A
:103F1800ADF806300D93CDE910320122CDE90E53EC
:103F2800CDE91223CDE91433002943D0F02300F161
:103F3800100508AEADF80630C02341F2883231468C
:103F48002846089306F0C8FA28B10123184684F8D1
:103F58005C3024B070BD41F288320DF1060128466C
:103F680006F024FB03460028EFD105224FF48071A8
:103F78001E93284616924FF080721B9321931F922E
:103F880002AA9FED1F7BCDE91C13CDE922338DEDED
:103F9800027B9FED1D7B41F2883316A98DED047BD2
:103FA8009FED1B7B8DED067B06F002FC0028CCD133
:103FB80024B070BD00F1100508AE612341F28832CB
:103FC80031462846089306F087FA0028BDD141F209
:103FD80088320DF10601284606F066FB0028B4D1A8
:103FE800BDF80630204623F0780343F04003ADF8CF
:103FF8000630FFF73DFF00289ED0A6E7AFF300800C
:104008000000000001000000100000000100000096
:1040180000000000000040002DE9F04F00234FF49D
:10402800807501264FF0807804462DED028BABB0E9
:104038008DF8073013932193299314950E96CDF894
:104048005C80CDE91533CDE91863CDE91A33CDE9A4
:104058002253CDE92433CDE9273306231C9300F0FE
:10406800C3FF072808D004F1100741F288321CA9C1
:10407800384606F031FA40B10123184684F85C301E
:104088002BB0BDEC028BBDE8F08F4FF0020A4FF069
:10409800020B4FF0050941F2883308AA1CA93846DB
:1040A800CDF89480CDF870909FED2D8BCDE908ABBD
:1040B8004FF0000A4FF4800B8DED0A8BCDE90CAB65
:1040C80006F076FB0028D7D141F2883238460EA98F
:1040D80006F002FA0028CFD1402341F288320DF1D0
:1040E800070138468DF8073006F060FA0028C3D17A
:1040F80041F288330EA902AA3846CDF83890CDF897
:104108005C809FED197B8DED048BCDE906AB8DEDC1
:10411800027B06F04DFB03460028ADD1CDF8709028
:104128004FF00109CDF894804FF00008219308AAB8
:1041380029931CA938462295CDE92333CDE92733A5
:1041480041F288338DED0A8BCDE90CABCDE90889B6
:1041580006F02EFB002893D0304684F85C608FE789
:1041680010000000010000004000000040000000B6
:104178002DE9F043624CA3B00D46046000F034FF13
:10418800072800F0A980286823466968AA6807C339
:104198001E46AB8926F8043B3046257B677B06F034
:1041A8007DF9E0B9574B012D4FF00108E06123611B
:1041B80014BF4FF480134FF40003C4E9058893FA41
:1041C800A3F3B3FA83F34FF48079013BC4F8249046
:1041D800C4E90B003046236206F0F4F838B1012236
:1041E800134684F85C20184623B0BDE8F0836623A4
:1041F8000B90139041F2883206A90693CDE90C90F2
:10420800CDE90E00CDE91100304606F065F9002829
:10421800E5D1992341F2883206A93046069306F083
:104228005BF90028DBD105231C9019906A4614938A
:104238004FF08073219014A91D9341F288339FEDAC
:104248002A7BCDE91A90CDE91F008DED007B9FED0B
:10425800287B30468DED027B9FED277B8DED047B1F
:1042680006F0A6FA0028BAD129462046FFF748FEEC
:104278000028B4D12046FFF7CFFE03460028AED170
:10428800002FB0D1189330460027002606AA14A99B
:10429800CDF86890CDE91F33EB2314934FF44063B6
:1042A8001B934FF4005317934FF440431C93A023E0
:1042B8001693062319934FF0805321934FF04073C0
:1042C800CDE906671D9306F0EBFA034600288AD06D
:1042D800434684F85C8086E701230322184684F865
:1042E8005C2023B0BDE8F08300000000010000005E
:1042F8001000000001000000000000000000400065
:1043080010110024005000522DE9F04F8FB0414B9E
:104318000024026800AF9A427C63C7E90944C7E9F0
:104328000B4403D03C37BD46BDE8F08F3A4B40F60E
:1043380009213A48EB46D3F8D42007F11C0607F1C7
:10434800220A4FF0020942F480424FF00308C3F8F2
:10435800D420D3F8D42002F48042BA60BA68D3F8E3
:10436800E02042F04002C3F8E020D3F8E02002F059
:104378004002FA60FA68D3F8E02042F02002C3F85D
:10438800E020D3F8E02002F020023A613A69D3F83D
:10439800E02042F01002C3F8E020D3F8E02002F059
:1043A80010027A617A69D3F8E02042F00202C3F879
:1043B800E020D3F8E030F86103F002033984BB61F0
:1043C800174B7B60BB697B6853F8040F7B6000F078
:1043D8008FFF7B680546186800F092FF16F8013BCE
:1043E800786207F124012846C7F830807B63C7E963
:1043F8000A9402F025FF5645E5D100225C201146BB
:1044080001F0A2FE5C2001F0DDFE3C37DD46BD4632
:10441800BDE8F08F00500052004402580A0A09090A
:104428006C110024114B02689A4200D07047104A60
:1044380070B5D2F8D4300F4C23F4804304F1180639
:10444800C2F8D43054F8040F00F052FF0546206833
:1044580000F056FF0146284603F032F8B442F1D185
:104468005C20BDE8704001F0BBBE00BF00500052A8
:10447800004402586C110024014806F09DBA00BFA0
:1044880020110024084B1A1D981D03F1080110B4CF
:104498009C1C9A6603F10A02C3E91834C3E91B019C
:1044A8005DF8044B5A6770471011002438B503684B
:1044B80071B9026A00F1280500F5AC74012A0CBF35
:1044C800002140218BBB1D4B5722C0F858310DE00D
:1044D800426A00F1C00500F5E874012A0CBF00210A
:1044E8004021EBB1164B5A22C0F8D03100232046A8
:1044F800C4E901214FF480524FF480616362626124
:104508004FF48042C4E903314FF48073C4E90623B1
:104518004FF40033236201F0C9FF58B1FFBEFEE734
:10452800084B5822C0F8D031E0E7074B5922C0F8B1
:104538005831DBE7C5E92044A56338BD10000240C7
:104548007000024028000240580002402DE9F04364
:10455800821D05468BB0031D05F10A010830CDE91F
:10456800052305F10C02AB69CDE907010992002B7F
:104578003DD0EB69B3FA83F84FEA581801230222B9
:1045880005AE0AAF4FF006090393CDE9012356F8AB
:10459800044B2B792278934216D02B68F3B1012B68
:1045A80002D1F2B10A230493204600F0A9FE034683
:1045B8002046009300F09CFE694602F041FEBE4290
:1045C800E5D10BB0BDE8F083697963789942E4D10D
:1045D800B8F1000FF3D02B68002BE0D1CDF8109084
:1045E800E2E76378022B14BF0A230823DBE74FF0C6
:1045F8000108C3E7534A0368934230B505468BB0B8
:1046080055D02032934252D04F4A934204D02032A0
:10461800934201D00BB030BD4C4C4D48D4F8E0303B
:1046280043F00103C4F8E030D4F8E03003F00103AC
:104638000593059BD4F8E03043F00803C4F8E03054
:10464800D4F8E03003F008030693069BD4F8E03072
:1046580043F04003C4F8E030D4F8E03003F04003FE
:104668000793079BD4F8F03043F40003C4F8F03004
:10467800D4F8F03003F400030893089BFFF766FFB3
:10468800D4F8D830296843F001032F4A3048C4F8D9
:10469800D830891AD4F8D83018BF012103F00103A3
:1046A8000993099B0BB0BDE83040FFF7FFBE274CCC
:1046B8002848D4F8E03043F00103C4F8E030D4F8D7
:1046C800E03003F001030093009BD4F8E03043F09E
:1046D8001003C4F8E030D4F8E03003F0100301937D
:1046E800019BD4F8E03043F04003C4F8E030D4F83C
:1046F800E03003F040030293029BD4F8F03043F417
:104708008003C4F8F030D4F8F03003F48003039346
:10471800039BFFF71BFFD4F8D830296843F0010347
:10472800084A0C48C4F8D830891AD4F8D83018BFC9
:10473800012103F001030493049B0BB0BDE8304052
:10474800FFF7B4BE04580140045C0140004402581D
:10475800E413002488110024014802F01FBA00BFA6
:10476800E0120024014802F019BA00BF58130024CF
:10477800014802F013BA00BF3C150024014802F0BA
:104788000DBA00BFB41500241A4A0368934210B446
:104798000BD02032934208D0174A934216D02032C9
:1047A800934213D05DF8044B7047144B0022D3F8A2
:1047B8005442C3F85822002CF4D0D3F84802D3E965
:1047C800931223465DF8044B520818470B4B0022FE
:1047D800D3F8B044C3F8B424002CE3D0D3F8AC2405
:1047E800D3F8A814D3F8A404520823465DF8044B60
:1047F800184700BF04580140045C01408811002498
:10480800184A0368934210B40BD02032934208D060
:10481800154A934217D02032934214D05DF8044BC6
:104828007047124BD3E994245208C3F85822002C3D
:10483800F4D0D3E99201234601EB820100EB820018
:104848005DF8044B1847094BD3F8AC24D3F8B044AF
:104858005208C3F8B424002CE0D0D3F8A814D3F835
:10486800A404E8E704580140045C014088110024CE
:104878002DE9F04F0C684FF41776754F87B004FB9D
:1048880006F6012C07EB060AC0F800A000F3A0808A
:104898000D468E464FF00008D44669A3D3E900239D
:1048A80069A1D1E90001CDE9022306ABCAF850821B
:1048B80003EB8403CDE9040153F810BC53F8083C1A
:1048C800CAE992880193BEE80F00ACE80F00BEE881
:1048D8000F00ACE80F00019B9EE80300CAF828B05F
:1048E800CAF8C0308CE803002B69042B0CD8DFE829
:1048F80003F0737D879103004FF41773554A03FB48
:1049080004739A64C3F8E020AA692B6A002A43D08A
:10491800002B4FF4177308BF022203FB047318BF60
:104928000322DA6201221A63EA696B6A002A40D11B
:10493800191E4FF4177318BF012103FB0473C3E951
:1049480031126B69022B05D8434A12F80380434A97
:1049580052F823904FF4177306F12800424649464F
:1049680003FB04740023384463646363E365C4F899
:10497800DC30C4F8CC30C4F8F430C4E90F33C4E9EF
:104988001533C4E93533C4E93B33022308F0B6F8DC
:10499800002849D0FFBEFEE7191E4FF4177318BF51
:1049A800012103FB0473C3E90B12EA696B6A002A4D
:1049B800BED0002B4FF4177308BF022203FB047309
:1049C80018BF0322C3F8C4200122C3F8C820B8E7DF
:1049D800012007B0BDE8F08F4FF417734FF4FA5277
:1049E80003FB04739A64C3F8E0208DE74FF4177350
:1049F8004FF47A5203FB04739A64C3F8E02083E708
:104A08004FF417734FF4FA4203FB04739A64C3F824
:104A1800E02079E74FF417734BF6803203FB0473F9
:104A28009A64C3F8E0206FE706F1C000022342460B
:104A38004946384408F062F80028CAD0FFBEFEE7AD
:104A480004580140045C014024580140245C0140A2
:104A58008811002400770100C0350108C435010819
:104A68000068704770B5046882B015460E46C4F8F1
:104A78005032C4E99212069AC4F85422A269012A53
:104A880026D0626A012A9AB211D0294604F1C000E0
:104A9800019208F0EFF8236A019A012B10D02946F9
:104AA80004F1280008F0E6F8002002B070BD04F117
:104AB800C000019208F070F9236A019A012BEED127
:104AC800314604F1280008F067F9002002B070BDF3
:104AD800226A012A9AB211D0294604F128000192CB
:104AE80008F0C8F8636A019A012B10D0294604F12E
:104AF800C00008F0BFF8002002B070BD04F1280023
:104B0800019208F049F9636A019A012BEED1314606
:104B180004F1C00008F040F9002002B070BD00BFE9
:104B280003681B69042B05D8044A02EB830393ED41
:104B3800000A70479FED020A704700BFD035010890
:104B480000803B470368D3F858027047704700BF9E
:104B580008B500F0DDFCBDE8084001F0BDBB00BFB2
:104B6800064808B503680BB102F07CFD04480368E9
:104B78001BB1BDE8084004F0C9BE08BD501A0024A6
:104B880048160024064808B503680BB102F06AFD10
:104B9800044803681BB1BDE8084004F0B7BE08BD6F
:104BA800501A002448160024064808B503680BB1BB
:104BB80002F058FD044803681BB1BDE8084004F042
:104BC800A5BE08BD501A002448160024364BDA6AE0
:104BD800520062D59A6A9A6A9A6A9B6A180600D540
:104BE80000BE314B9B6A990600D500BE2E4B9B6ACE
:104BF800DA0600D500BE2C4B9B6A1B0700D500BE09
:104C0800294B9B6A980700D500BE274B9B6AD9079A
:104C180000D500BE244B9B6A1A0400D500BE224B67
:104C28009B6A9B0400D500BE1F4B9B6AD80400D525
:104C380000BE1D4B9B6A190500D500BE1A4B9B6A26
:104C48005A0500D500BE184B9B6A9B0500D500BECF
:104C5800154B9B6AD80500D500BE134B9B6A99017A
:104C680000D500BE104B9B6ADA0100D500BE0E4B82
:104C78009B6A1B0300D500BE0B4B9B6A580300D5EB
:104C880000BE094B9B6A990300D500BE064B9B6A80
:104C9800DA0306D400BE00BEFEE7DB6A9B07FAD53E
:104CA800F8E700BEF6E700BF00ED00E000F03CBC0E
:104CB80000F040BC0A4B9B6803F17843B3F5003F12
:104CC8000BD3084B986848B19868012806D09868B3
:104CD800022803D09B68032070470120704700BF5B
:104CE80000ED00E0000080382DE9F041CEB0044628
:104CF8004C2200210AA80EF0FBFA2022002102A86B
:104D08000EF0F6FABC2200211EA80EF0F1FA0220DD
:104D180005F070FA2368012B4FF0000354D0534A72
:104D280002250193C820D16A514B21F00101D162BB
:104D3800D26A02F0010201929A6942F440429A61F1
:104D48009B6903F440430193019B494A93699B047F
:104D5800FCD548490224002201268B6A04274FF01B
:104D6800080823F0030323438B62052316900AA83F
:104D780018934FF480331096179419941597CDF81B
:104D88006880CDE91B222122CDE91344CDE90A230D
:104D980005F01AFF00B1FEE73F220323294602A8C7
:104DA800CDE9022300220823CDE904234022402331
:104DB800CDE9062340234FF48062CDE9082306F0AD
:104DC80031FA0346B8B1FEE7294A04250093F020DA
:104DD8009169264B41F440419161926902F4404245
:104DE8000092DA6A42F00102DA62DB6A03F0010338
:104DF8000093009BA9E720224FF4805125934FF49C
:104E080040152B9280222D931EA830932691359120
:104E18004FF48071249234920C223394439140F2DF
:104E2800271120921022CDF884802A971F96CDE969
:104E38002E34CDE93B334FF48033CDE9224631930C
:104E4800002446930623CDE93E4527934FF480631B
:104E5800094C2C931E94CDE9281206F03FFC00B1B2
:104E6800FEE705F0EDF94EB0BDE8F081000400580A
:104E780000480258004402580F130F0370B584B05D
:104E8800012401F0D7F94FF480764FF04052194BC6
:104E980068460025ADF800400396CDE9012301F0EE
:104EA800E7F919224FF0404368468DF8082001932E
:104EB8008DF80F40ADF80D608DF801408DF80A505F
:104EC80001F0D6F902230B2268468DF80F508DF8B1
:104ED80001304FF062538DF808200193ADF80D4072
:104EE8008DF80A4001F0C4F9042001F0B1F904B0CA
:104EF80070BD00BF0E00010330B50D46044685B0F5
:104F0800D1E9000184E8030000F0D2FAAB79A3B339
:104F18000BF0ECFAFEF7D0FC09F052FF0AF0DEFFC6
:104F28002B798BBB6B799BB1BFF34F8FBFF36F8F1F
:104F38002A4B0022C3F85022BFF34F8FBFF36F8F65
:104F48005A6942F400325A61BFF34F8FBFF36F8F33
:104F58004FF0FF32002300240025694620480292C2
:104F68008DF80C30CDE900450AF04AFB1C480AF0E0
:104F7800AFFB09F055FB05B030BD2046FFF7B4FE86
:104F88002046FFF77BFFC3E7144C0023C4F88430A6
:104F9800BFF34F8FD4F8801043F6E07EC1F34E3C48
:104FA800C1F3C9014FEA4C1C0CEA0E000B4640EA5B
:104FB8008372013BC4F860225A1CF8D1ACF1200C72
:104FC8001CF1200FF0D1BFF34F8F636943F4803396
:104FD8006361BFF34F8FBFF36F8FA3E700ED00E06E
:104FE8004016002406F04EBA1C4B9B6803F1784229
:104FF800B2F5003F25D3B3F5803F20D303F16042DB
:10500800B2F5003F1FD303F15C42B2F5002F1CD369
:1050180003F17042B2F5902F19D303F14842B2F56B
:10502800803F16D303F18042B2F1806F13D303F1AE
:10503800E043B3F5000F2CBF08200720704701207C
:1050480070470020704702207047032070470420F3
:105058007047052070470620704700BF00ED00E04C
:1050680003480023034A044903600EF055B800BF03
:105078004016002400000024554B000810B4204CB2
:105088000022204B83B0D4F888101F4841F47001E7
:10509800C4F8881019681D4C41F0010119601A61A3
:1050A800196808401A4918609A61DA611A629A62A6
:1050B800DA621A635A639A63DA631A645A6418687C
:1050C80020F4802018601A66D3F8DC2042F0604291
:1050D800C3F8DC20D3F8DC300193019B2368194026
:1050E800B1F1005F03D20B4B0122C3F80821044B36
:1050F8004FF000629A6003B05DF8044B704700BF40
:1051080000ED00E0004402587FEDF6EA0010005C74
:105118000000FFFF0080005100F57171D0F8040411
:1051280008F066BEC1EBC10300EB8303D0F80404AA
:10513800D3F8082208F08ABEC1EBC10300EB830351
:10514800D0F804049A6C08F0BFBE00BFD0F804047D
:1051580008F05EBFC16810B5044619B1022900D035
:10516800FEE70121D4F8040408F03CFFD4F8040455
:10517800BDE8104008F00EBF10B50446D0F804048E
:1051880008F034FF2268D2F8003E43F00103C2F869
:10519800003E236A23B1034A136943F006031361EF
:1051A80010BD00BF00ED00E0D0F8040408F028BFEF
:1051B800D0F8040408F03CBFD0F8040408F036BF67
:1051C800D0F8040408F036BFD0F8040408F034BF5F
:1051D8009446D0F898021A4608B5634604F0FAFED9
:1051E800032802D8024B185C08BD022008BD00BF86
:1051F800F4350108D0F8980208B504F079FF0328BF
:1052080002D8024B185C08BD022008BDF43501081D
:10521800D0F8980208B504F0AFFF032802D8024B73
:10522800185C08BD022008BDF43501080A06D0F84C
:10523800983206D4C1EBC10103EB810191F8FE015C
:10524800704701F07F01C1EBC10103EB810191F8C7
:105258003E007047D0F8980208B504F0A5FE032870
:1052680002D8024B185C08BD022008BDF4350108BD
:10527800D0F8980208B504F013FF032802D8024BAF
:10528800185C08BD022008BDF4350108D0F8980262
:1052980008B504F0DDFE032802D8024B185C08BDEF
:1052A800022008BDF4350108D0F8C00209F072B92F
:1052B800D0F8C00209F086B9D0F8C00209F08EB95A
:1052C800704700BFD0F8C00209F074B9D0F8C00226
:1052D80009F074B9D0F8D00308B502F083FD0328AB
:1052E80002D8024B185C08BD022008BDF835010839
:1052F800024B027853F82200704700BF1C360108A1
:10530800024B427833F81200704700BFFC350108A1
:105318008CB00A2814D8DFE800F01523313F4D5B24
:105328006977859306004D4BD3F8E02042F48062FC
:10533800C3F8E020D3F8E03003F480630B930B9BB1
:105348000CB07047454BD3F8E02042F00102C3F897
:10535800E020D3F8E03003F001030193019BEFE76D
:105368003E4BD3F8E02042F00202C3F8E020D3F825
:10537800E03003F002030293029BE1E7374BD3F8D6
:10538800E02042F00402C3F8E020D3F8E03003F054
:1053980004030393039BD3E7304BD3F8E02042F098
:1053A8000802C3F8E020D3F8E03003F008030493C0
:1053B800049BC5E7294BD3F8E02042F01002C3F85C
:1053C800E020D3F8E03003F010030593059BB7E71E
:1053D800224BD3F8E02042F02002C3F8E020D3F8B3
:1053E800E03003F020030693069BA9E71B4BD3F894
:1053F800E02042F04002C3F8E020D3F8E03003F0A8
:1054080040030793079B9BE7144BD3F8E02042F037
:105418008002C3F8E020D3F8E03003F0800308935B
:10542800089B8DE70D4BD3F8E02042F48072C3F857
:10543800E020D3F8E03003F480730993099B7FE7F9
:10544800064BD3F8E02042F40072C3F8E020D3F80A
:10545800E03003F400730A930A9B71E70044025892
:10546800704700BF0F4B1B780BB90120704710B570
:1054780004464FF47A700C4AB0FBF3F31068B0FBA3
:10548800F3F000F0C1FE0F2C00D808B1012010BDC8
:10549800002221464FF0FF3000F056FE034B00205B
:1054A8001C6010BD540000244C0000245800002447
:1054B80038B50320124D00F035FE124C05F012FEEF
:1054C800114A12499369C3F30323CB5C03F01F030A
:1054D80020FA03F30E202B60926902F00F028A5C17
:1054E80002F01F02D3402360FFF7BCFF10B1012474
:1054F800204638BD0446FFF7B3FF204638BD00BF3D
:105508004C0000245000002400440258E4350108EF
:10551800034A044B11681B780B441360704700BFA3
:10552800141D002454000024014B1868704700BF64
:10553800141D002438B50446FFF7F6FF0546631C22
:1055480002D0044B1B781C44FFF7EEFF431BA34219
:10555800FAD338BD54000024014B1868000C70477A
:105568000010005C704700BF806B08B5FFF7FAFFBA
:1055780008BD00BF836B5A6D12F0500F5A6D10B5FD
:105588001DD1196842F400725A650A6812F0080FB2
:10559800CA681BD012F4406F0DD1CA6894040AD4AB
:1055A8005A6D22F480725A655A6DD10403D45A6D2B
:1055B80042F001025A651846FDF7F4FC10BDD20608
:1055C8000AD4DB6CBDE81040DB6C18479007E7D0C5
:1055D8001846FDF7E7FCF1E71846FDF787FD10BD13
:1055E800806B08B5436D43F040034365836D43F01A
:1055F80004038365FDF77AFD08BD00BFF0B50022FE
:1056080083B0019290F85020012A00F01C810346D3
:1056180001201A6883F850009468640700F18A80B2
:105628000C68C4F31305002D40F08F80C4F3846424
:10563800A0404D684FF01F0ED6694FEA951C3043C5
:105648000CF00C0CD06105F01F0002F1300584400D
:105658000EFA00FE5CF8050020EA0E0004434CF840
:105668000540906840076ED4956815F0080547D145
:105678000C68072002F11406B94F4FEAD45CC4F352
:1056880004540CF0040C00FA04FE886800FA04F4D0
:105698005CF8060020EA0E0020434CF80600386843
:1056A80000F07040B0F1805F00F0C580D068D66827
:1056B800C70600F1E880C6F382064869760000FA5A
:1056C80006F60F69042F00F0C18002F16004086833
:1056D80054F827C000F0F8400CF0004C40EA0C00E9
:1056E800304344F82700487E0E69012854F8260004
:1056F80008BF4FF0004520F00040054344F826500D
:105708009068C40714D4CE68086806F01807954C4A
:10571800D2F8C050FC40C0F31307044025EA07053F
:105728002C43C2F8C040904CA64246D0002816DB55
:10573800002003E05A6D42F020025A65002283F8E7
:10574800502003B0F0BD9068DAE794FAA4F5B5FAF2
:1057580085F5C4F3846405F01F05A84069E783490B
:105768008A4200F0B68001F580718A4200F0B1806B
:105778007F4D804CA968A46801F0E076E44304F00A
:105788000104002C00F0B4807B4CA04200F0FC80A7
:105798007A4CA04200F01A81794CA042C8D1490243
:1057A800C6D474498A42C3D1AA68002022F0E072A4
:1057B800324342F48002AA60C0E7002F6AD090FA10
:1057C800A0F4B4FA84F4013404F01F04092C00F2A4
:1057D800A48090FAA0F4B4FA84F490FAA0F5B5FA8B
:1057E80085F5013401260135A40605F01F0504F0EE
:1057F800F84406FA05F52C4390FAA0F0B0FA80F0C8
:10580800304400F01F0000EB400000052043C60DA7
:1058180002F11405C0F30450072406F0040604FA44
:1058280000F7745924EA07048F6807FA00F0204348
:10583800705108687AE7D6684869C6F38206760028
:1058480000FA06F63DE7022003B0F0BD106E0C68C2
:1058580000F0F840A506B0EB846F30D0506E00F031
:10586800F840854226D0906E00F0F84085422BD053
:10587800D06E00F0F84085427FF442AFD06E20F041
:105888000040D0663CE77608486906F0080600FA4A
:1058980006F616E7800E441C04F01F06092E2DD8C4
:1058A800A406012004F0F844B040044306EB460087
:1058B8000005ABE7506E20F000405066D3E7106E4D
:1058C80020F000401066C9E7906E20F00040906616
:1058D800CEE7264C2B4D04F58074A96854F8F86C73
:1058E800A468344301F0E076E44304F0010448E797
:1058F8005A6D012042F020025A651FE706EB460068
:10590800A50601241E3805F0F84504FA06F6000538
:10591800354340F00070284379E790FAA0F5B5FACE
:1059280085F590FAA0F4B4FA84F40135012601341F
:10593800AD0604F01F0405F0F84506FA04F4254303
:1059480090FAA0F4B4FA84F4344404F01F0404EB8D
:105958004404A4F11E00000540F00070DBE700BF1E
:105968000010005CFFFF0F000000FF47002002400E
:105978000063025800600258000084CB000052C740
:105988000000B8CF0023024008023FF5D1AE174906
:105998008A427FF4CDAE164AA9681268154821F0EC
:1059A800E07192093143A0FB020241F4000192091F
:1059B800A96052000192019A002A3FF4B9AE019AF7
:1059C800013A0192019A002AF9D1B1E611F08070EA
:1059D8007FF4AEAE05498A427FF4AAAEAA6822F0E7
:1059E800E072324342F08072AA60A7E60060025873
:1059F8004C000024632D3E0503689A68D20701D540
:105A0800002070479968214A114270B5044608D0B1
:105A1800636D012043F010036365A36D0343A36521
:105A280070BD99681A4A0A4042F001029A60FFF76D
:105A38007BFD2368174A054693421ED002F5807203
:105A480093421AD0144A9268114E0AE09A6832407A
:105A580042F001029A60FFF767FD401B0228D7D881
:105A680023681A68D2070FD49A68D107EED5FFF7D2
:105A78005BFD401B0228F3D9CAE7084A9268D006A2
:105A8800E2D0074A9342DFD1002070BD3F0000807A
:105A9800C0FFFF7F0020024000630258002302403D
:105AA800002102402DE9F0413A4D044600680F46B6
:105AB8001646A84219D0384B984216D0374DAB68D5
:105AC8008068420716D494F85020012A12D003F0B7
